:040000000C948F00CD
:100004000C9400000C9400000C9400000C9400006C
:100014000C9400000C9400000C9400000C9400005C
:100024000C9400000C9400000C9400000C9400004C
:100034000C9400000C9400000C9400000C9400003C
:100044000C9400000C9400000C9400000C9400002C
:100054001027E80364000A000100001000011000EA
:1000640001004572726F7200507265737320312003
:100074006F722032206F72203300776174657200D2
:1000840057617368696E6700447279696E670077B7
:1000940061746572206576616374696F6E0080C0F7
:1000A400060060026600120066026C000600780218
:1000B4007E0008007E028400070086028C000F0088
:1000C4008D02930006009C027E000800A2028400B8
:1000D4000700AA028C000F00B10293000600C002C0
:1000E4007E000800C60284000700CE028C000F00C8
:1000F400D50293000600E40266000600EA026600E8
:100104000600F00266000600F60266001200FC0219
:100114006C0002000E03A2000000F894EE27ECBB72
:10012400F1E0FBBFEBBFE5BF8DE0A2E0BB27ED93A1
:100134008A95E9F780E098E0A0E6ED930197E9F766
:10014400E4EAF0E085919591009761F0A591B5916D
:1001540005901590BF01F00105900D920197E1F70C
:10016400FB01F0CFEFE5EDBFE8E0EEBFC0E6D2E083
:100174000C94CB00AA93E881E06CE7B98BE18A95F3
:10018400F1F7369A349BFECF349AE4B1F5B10C946E
:10019400AD02E0E0EABBEBBBE7BBE8BBE4BBE5BB1D
:1001A400EFEFE1BBE0E0E2BBE3BFE2BFECBFEFBDDA
:1001B400EEBDEDBDECBDE7BDE6BDEBBDEABDE9BD01
:1001C400E8BDE2BDE5BDE4BDE3BDE9BFE5BFE4BF15
:1001D400EAB9E0E8E8B9E0E0E0BFE6B9EDB9E6BFC6
:1001E400E5BBE7EFE4BBE0ECE7B9E3E8E6B9A8E296
:1001F40086D10E94AF0230F0A0E0BCDF0E94FF0273
:10020400B89758F490980E94B402A0E6B2E066D180
:10021400A8ECB0E00E94F10270C00E94BB020E94F0
:10022400B402A6E6B2E05AD10E94BB02B09904C05F
:10023400B19902C0B29B01C001C0F8CFA0E0B0994F
:10024400A1E0A130D0F00E94BF02E0E1F7E2FA930E
:10025400EA930E94C4020E94BF02E8E7F2E0FA9324
:10026400EA93EEE7F2E0FA93EA93E6E8F2E0FA932F
:10027400EA93ADE8B2E046D044C0A0E0B199A1E071
:10028400A130E0F00E94BF020E94C402E0EDF7E05A
:10029400FA93EA93E8EBFBE0FA93EA93ECE9F2E0F1
:1002A400FA93EA93E2EAF2E0FA93EA93EAEAF2E0F2
:1002B400FA93EA93A1EBB2E025D023C0A0E0B2996F
:1002C400A1E0A130D0F00E94BF020E94C402E8EB7A
:1002D400FBE0FA93EA930E94BF02E0ECF2E0FA93A7
:1002E400EA93E6ECF2E0FA93EA93EEECF2E0FA93A6
:1002F400EA93A5EDB2E006D004C0CFD00E94BB02C1
:1003040078CFFFCFBA93AA930E94C90218F00E9433
:10031400CE0208F493C00E94B402AE81BF81DED045
:10032400919AAE85BF850E94D302AE85BF850E9497
:10033400D8029CF40E94C90218F00E94CE0238F43C
:100344000E94B402A4EEB2E0C9D0909877C00E9493
:10035400DF02F30131963F01E8CF0E94B402AC8181
:10036400BD81BCD0909A9198AC85BD850E94D30282
:10037400AC85BD850E94D8029CF40E94C90218F085
:100384000E94CE0238F40E94B402AAEEB2E0A6D0D3
:10039400909854C00E94DF02F30131963F01E8CFE8
:1003A4000E94B402AA81BB8199D0AA85BB850E9410
:1003B400D302AA85BB850E94D8029CF40E94C9027C
:1003C40018F00E94CE0238F40E94B402A0EFB2E00A
:1003D40085D0909833C00E94DF02F30131963F012B
:1003E400E8CF0E94B402A881B98178D0929AA885F6
:1003F400B9850E94D302A885B9850E94D8029CF4CD
:100404000E94C90218F00E94CE0238F40E94B4027D
:10041400A6EFB2E063D0909811C00E94DF02F3010E
:1004240031963F01E8CF909892980E94BB020E94B7
:10043400B402ACEFB2E052D00E94BB0260960895C1
:10044400AA93E5B3EF70AE2FE881E07FEA2BE5BB1A
:100454008DE08A95F1F7AA9A8DE08A95F1F7AA982A
:100464008DE08A95F1F777C0AA93A881E9DFE88146
:10047400E295E883A881E4DF85E88A95F1F76BC00B
:10048400AA93E881F0E0E25FFC4FE081A981AE0F1E
:10049400EBDF9980888022960895A2E00E94E3020F
:1004A400ACE0E2DFA1E00E94E302E0E08E2E9E2EAB
:1004B4000895AA93A881AA3011F09B1448F0E0E0B3
:1004C400EA938394A82DDCDFA881AA3009F443C001
:1004D4009394A89AA881C8DFA8983DC0BA93AA9318
:1004E4001A93A981BA81ED91A983BA831E2FE030B2
:1004F40019F0A12FDEDFF5CF188123960895AA9372
:10050400E4B3E06FE4BBA29AA09AA19AAA98A8982F
:10051400A998B880E881E058E0931003E881E0549A
:10052400E0931103A4E1B0E00E94F1020E94E90209
:100534000E94E9020E94E902A0E282DF88EC90E0D6
:100544000197F1F7A8E290DFA4E08EDFA5E88CDF45
:10055400A6E08ADFA2DF21960895A0E0C999A1E070
:10056400A13008950E944F02E0E0EA93A1E00C94C8
:100574004202A4EFB1E00C94F102E8EEF3E0FA9346
:10058400EA930895E8E8F3E1FA93EA930895A0E082
:100594000E94BC002F01E1CFF2010E94FF02B89734
:1005A40008950E94F102662477240895E8EEF3E0AA
:1005B4000E9417036E167F060895A4E6B0E00C941B
:1005C400F1020E943602A3E0B0E00C94F102A0E331
:1005D4000E94220288EC90E00197F1F708951096AA
:1005E40039F080ED97E00197F1F7A8951197C9F7D5
:1005F4000895F195E195F0400895F695E795F695FF
:10060400E79508950024112490E1AA0FBB1F001C54
:10061400111C0E1A1F0A18F40E0E1F1E01C0A16031
:100624009A9599F7FD01D001089504D0EBDF0EF4FB
:10063400E0DF0895E894F7FF02C0DBDF6894B7FFBA
:1006440006C0A095B095119600F8039400FA089599
:00000001FF
